:100000000C942A000C94A10A0C94D40A0C94070BAB
:100010000C9447000C9447000C9447000C94470044
:100020000C9447000C9447000C94B9070C940908F1
:100030000C9447000C9447000C9447000C94470024
:100040000C9447000C9447000C9447000C94470014
:100050000C94470011241FBECFE5D8E0DEBFCDBF12
:1000600011E0A0E6B0E0E4E0F1E302C005900D92FB
:10007000AA38B107D9F711E0AAE8B1E001C01D9292
:10008000A939B107E1F70E943E180C9480180C942E
:100090000000EF92FF920F931F937B018C0120E0F1
:1000A00030E040E05FE40E94F50388238CF0C80153
:1000B000B70120E030E040E05FE40E94C1010E940F
:1000C000B3049B01AC01205030404040504806C072
:1000D000C801B7010E94B3049B01AC01B901CA0178
:1000E0001F910F91FF90EF900895A0E0B0E0EBE733
:1000F000F0E00C944918DC012B01FA019C9192303C
:1001000008F439C1EB018881823008F433C194309E
:1001100069F4843009F02FC111969C91119789815F
:10012000981709F428C1A0E6B0E025C1843009F48D
:1001300021C18230A9F4923009F01DC19A01AD01AC
:1001400088E0EA010990AE01E90109929E0181501F
:10015000C1F7E201898111969C918923818308C1AD
:10016000923009F407C112962D903C901397EB0141
:100170008A819B811496AD90BD90CD90DC901797AD
:10018000EC80FD800E811F819101281B390BB90184
:1001900037FF04C066277727621B730B6032710537
:1001A0000CF061C0121613066CF537014801062EDB
:1001B00004C096948794779467940A94D2F721E0C8
:1001C00030E040E050E004C0220F331F441F551FB1
:1001D0006A95D2F721503040404050402E213F21B7
:1001E00040235123211531054105510521F021E01E
:1001F00030E040E050E079018A01E628F72808293C
:1002000019293CC0232BD1F1260E371E350146019A
:10021000062E04C096948794779467940A94D2F734
:1002200021E030E040E050E004C0220F331F441FC3
:10023000551F6A95D2F721503040404050402A2146
:100240003B214C215D21211531054105510521F04E
:1002500021E030E040E050E059016A01A628B728CB
:10026000C828D9280BC0821593052CF01C01AA249C
:10027000BB24650103C0EE24FF24870111969C91E5
:10028000D20111968C91981709F445C0992339F041
:10029000A80197012A193B094C095D0906C0A6016E
:1002A00095012E193F09400B510B57FD08C01182D3
:1002B0003382228224833583468357831DC081E0A5
:1002C00081833382228288279927DC01821B930B4A
:1002D000A40BB50B84839583A683B7830DC0220F2F
:1002E000331F441F551F24833583468357838281E0
:1002F000938101979383828324813581468157813D
:10030000DA01C9010197A109B1098F5F9F4FAF4F72
:10031000BF4328F30BC0918333822282EA0CFB1C7B
:100320000C1D1D1DE482F5820683178383E0808304
:10033000248135814681578157FF1AC0C901AA27F8
:1003400097FDA095BA2F81709070A070B0705695EF
:10035000479537952795822B932BA42BB52B848318
:100360009583A683B7838281938101969383828349
:10037000DF0101C0D201CD01CDB7DEB7E2E10C94BF
:100380006518A0E2B0E0E7ECF1E00C945518698341
:100390007A838B839C832D833E834F835887E9E048
:1003A000EE2EF12CEC0EFD1ECE010196B7010E943F
:1003B0002B068E010F5E1F4FCE010596B8010E94DD
:1003C0002B068A8991E089278A8BC701B801AE0183
:1003D000475E5F4F0E9475000E945605A096E6E0BA
:1003E0000C947118A0E2B0E0E8EFF1E00C9455181D
:1003F00069837A838B839C832D833E834F835887C5
:10040000F9E0EF2EF12CEC0EFD1ECE010196B701A6
:100410000E942B068E010F5E1F4FCE010596B8017C
:100420000E942B06C701B801AE01475E5F4F0E94D4
:1004300075000E945605A096E6E00C947118A0E2A3
:10044000B0E0E5E2F2E00C94491869837A838B838B
:100450009C832D833E834F835887CE010196BE0136
:10046000675F7F4F0E942B06CE010596BE016F5E2F
:100470007F4F0E942B069985923088F089898230BF
:10048000C8F0943019F4823051F404C0843029F457
:10049000923081F480E690E0C6C0923049F420E0CA
:1004A0009A858A89981321E02A87CE010996BBC0D4
:1004B000823049F420E09A858A89981321E02A8BBA
:1004C000CE014196B0C02D843E844F8458886D88FB
:1004D0007E888F88988CEE24FF248701AA24BB2471
:1004E000650140E050E060E070E0E0E0F0E0C10174
:1004F00081709070892BE9F0E60CF71C081D191D1E
:100500009A01AB012A0D3B1D4C1D5D1D80E090E062
:10051000A0E0B0E0E614F7040805190520F481E036
:1005200090E0A0E0B0E0BA01A901480F591F6A1F8E
:100530007B1FAA0CBB1CCC1CDD1C97FE08C081E0F5
:1005400090E0A0E0B0E0A82AB92ACA2ADB2A3196B6
:10055000E032F10549F0660C771C881C991C569412
:10056000479437942794C3CFFA85EA892B893C892D
:100570008B859C85280F391F2E5F3F4F17C0CA01FE
:1005800081709070892B61F016950795F794E79428
:1005900080E090E0A0E0B0E8E82AF92A0A2B1B2BC3
:1005A00076956795579547952F5F3F4F77FDE7CF36
:1005B0000CC0440F551F661F771F17FD4160EE0CDE
:1005C000FF1C001F111F21503040403090E05907A0
:1005D00090E0690790E4790760F32B8F3C8FDB0193
:1005E000CA018F779070A070B07080349105A1051A
:1005F000B10561F447FD0AC0E114F10401051105DC
:1006000029F0405C5F4F6F4F7F4F40781A8EFE1786
:1006100011F081E08A8F4D8F5E8F6F8F78A383E01A
:10062000898FCE0149960E945605A096E2E10C946E
:100630006518A8E1B0E0EFE1F3E00C94511869838C
:100640007A838B839C832D833E834F835887B9E0C5
:10065000EB2EF12CEC0EFD1ECE010196B7010E948F
:100660002B068E010F5E1F4FCE010596B8010E942A
:100670002B062985223008F47EC03989323010F4E7
:10068000B8017CC08A859A8989278A87243011F02D
:10069000223031F4231709F06EC060E670E06EC0BE
:1006A000343039F41D861E861F86188A1C861B86E8
:1006B00004C0323021F484E08987B7015FC02B8504
:1006C0003C858B899C89281B390B3C872B87ED84C3
:1006D000FE840F851889AD88BE88CF88D88CEA142F
:1006E000FB040C051D0540F4EE0CFF1C001F111F40
:1006F000215030403C872B8720E030E040E050E044
:1007000080E090E0A0E0B0E460E070E0EA14FB0478
:100710000C051D0540F0282B392B4A2B5B2BEA18C2
:10072000FB080C091D09B695A79597958795EE0CC2
:10073000FF1C001F111F6F5F7F4F6F31710531F775
:10074000DA01C9018F779070A070B0708034910584
:10075000A105B10561F427FD0AC0E114F10401050A
:10076000110529F0205C3F4F4F4F5F4F20782D87B8
:100770003E874F87588BBE01675F7F4FCB010E943A
:1007800056056896EAE00C946D18A8E1B0E0EBEC31
:10079000F3E00C94551869837A838B839C832D83B3
:1007A0003E834F83588789E0E82EF12CEC0EFD1E26
:1007B000CE010196B7010E942B068E010F5E1F4FDE
:1007C000CE010596B8010E942B068985823040F043
:1007D0008989823028F0C701B8010E94A30601C0B0
:1007E0008FEF6896E6E00C947118A8E1B0E0EBEFAB
:1007F000F3E00C94551869837A838B839C832D8353
:100800003E834F83588789E0E82EF12CEC0EFD1EC5
:10081000CE010196B7010E942B068E010F5E1F4F7D
:10082000CE010596B8010E942B068985823040F0E2
:100830008989823028F0C701B8010E94A30601C04F
:100840008FEF6896E6E00C947118A8E1B0E0EBE257
:10085000F4E00C94551869837A838B839C832D83F1
:100860003E834F83588789E0E82EF12CEC0EFD1E65
:10087000CE010196B7010E942B068E010F5E1F4F1D
:10088000CE010596B8010E942B068985823040F082
:100890008989823028F0C701B8010E94A30601C0EF
:1008A00081E06896E6E00C947118A8E0B0E0EBE512
:1008B000F4E00C9452189B01AC0183E08983DA01C7
:1008C000C9018827B7FD83959927AA27BB27B82E8A
:1008D000211531054105510519F482E089833AC09B
:1008E0008823A9F0203080E0380780E0480780E8BE
:1008F000580729F460E070E080E09FEC30C0EE24FF
:10090000FF248701E21AF30A040B150B02C07901D8
:100910008A018EE1C82ED12CDC82CB82ED82FE8250
:100920000F831887C801B7010E94070501971816A1
:10093000190684F4082E04C0EE0CFF1C001F111FC2
:100940000A94D2F7ED82FE820F831887C81AD90A5B
:10095000DC82CB82BA82CE0101960E94560528968F
:10096000E9E00C946E18ACE0B0E0E9EBF4E00C9434
:10097000591869837A838B839C83CE010196BE01CB
:100980006B5F7F4F0E942B068D81823061F1823038
:1009900050F1843021F48E81882351F12EC02F81B3
:1009A000388537FD20C06E812F3131051CF066235C
:1009B000F9F023C08EE190E0821B930B29853A85E4
:1009C0004B855C8504C056954795379527958A9544
:1009D000D2F76623B1F050954095309521953F4F61
:1009E0004F4F5F4F0EC020E030E040E050E009C0C4
:1009F0002FEF3FEF4FEF5FE704C020E030E040E033
:100A000050E8B901CA012C96E2E00C947518EF92F7
:100A1000FF920F931F937B018C0180E0E81680E02A
:100A2000F80681E0080780E0180788F48FEFE816E1
:100A3000F1040105110531F028F088E090E0A0E014
:100A4000B0E017C080E090E0A0E0B0E012C080E02D
:100A5000E81680E0F80680E0080781E0180728F033
:100A600088E190E0A0E0B0E004C080E190E0A0E088
:100A7000B0E020E230E040E050E0281B390B4A0BA8
:100A80005B0B04C016950795F794E7948A95D2F707
:100A9000F701E859FF4F8081281B310941095109AD
:100AA000C9011F910F91FF90EF900895DF92EF928F
:100AB000FF920F931F93FC01E480F580068117815C
:100AC000D1808081823048F480E090E0A0E1B0E005
:100AD000E82AF92A0A2B1B2BA5C0843009F49FC0F1
:100AE000823021F4EE24FF24870105C0E114F104D3
:100AF0000105110519F4E0E0F0E096C06281738110
:100B00009FEF623879070CF05BC022E83FEF261BAD
:100B1000370B2A3131052CF020E030E040E050E086
:100B20002AC0B801A701022E04C076956795579593
:100B300047950A94D2F781E090E0A0E0B0E004C0CD
:100B4000880F991FAA1FBB1F2A95D2F70197A109E9
:100B5000B1098E219F21A023B1230097A105B105E2
:100B600021F081E090E0A0E0B0E09A01AB01282BF9
:100B7000392B4A2B5B2BDA01C9018F779070A0705B
:100B8000B07080349105A105B10539F427FF09C083
:100B9000205C3F4F4F4F5F4F04C0215C3F4F4F4F92
:100BA0005F4FE0E0F0E02030A0E03A07A0E04A0725
:100BB000A0E45A0710F0E1E0F0E079018A0127C0D3
:100BC0006038710564F5FB01E158FF4FD801C7019A
:100BD0008F779070A070B07080349105A105B10539
:100BE00039F4E7FE0DC080E490E0A0E0B0E004C07E
:100BF0008FE390E0A0E0B0E0E80EF91E0A1F1B1F93
:100C000017FF05C016950795F794E794319687E08E
:100C100016950795F794E7948A95D1F705C0EE24C9
:100C2000FF248701EFEFF0E06E2F67956627679549
:100C3000902F9F77D794DD24D7948E2F8695492FB8
:100C4000462B582F5D29B701CA011F910F91FF90C4
:100C5000EF90DF900895FC01DB01408151812281FA
:100C6000622F6F7770E0221F2227221F9381892F26
:100C7000880F822B282F30E0991F9927991F1196F2
:100C80009C93119721153105A9F541155105610571
:100C9000710511F482E037C082E89FEF13969C93B0
:100CA0008E9312979A01AB0167E0220F331F441F06
:100CB000551F6A95D1F783E08C930DC0220F331F27
:100CC000441F551F12968D919C911397019713966F
:100CD0009C938E931297203080E0380780E048077D
:100CE00080E4580758F314962D933D934D935C93ED
:100CF000179708952F3F310579F441155105610586
:100D0000710519F484E08C93089564FF03C081E0B9
:100D10008C9312C01C9210C02F57304013963C93F6
:100D20002E93129783E08C9387E0440F551F661F24
:100D3000771F8A95D1F7706414964D935D936D93E8
:100D40007C93179708951F93DC01FB019C919230CF
:100D500008F447C08081823008F443C0943051F4D5
:100D600011961C91843099F58181682F70E0611B88
:100D700071093FC0843021F0923031F48230B9F1F2
:100D80008181882389F12DC011961C9111978230A1
:100D9000F1F081811817D9F412962D913C91139797
:100DA000828193818217930794F028173907BCF04A
:100DB00014968D919D910D90BC91A02D248135812B
:100DC00046815781281739074A075B0718F4112312
:100DD00041F00AC082179307A407B50740F4112316
:100DE00019F061E070E005C06FEF7FEF02C060E0D6
:100DF00070E0CB011F910895DF93CF93CDB7DEB79D
:100E0000A3E5B0E0E3E5F0E080818F7B8C93A3E580
:100E1000B0E0E3E5F0E08081877F8C93E2E5F0E0ED
:100E20001082A9E5B0E0E9E5F0E0808181608C9373
:100E3000A3E5B0E0E3E5F0E08081887F8C93A3E553
:100E4000B0E0E3E5F0E0808182608C93CF91DF91A8
:100E50000895DF93CF930F92CDB7DEB78983E2E594
:100E6000F0E0898180830F90CF91DF910895DF9327
:100E7000CF930F92CDB7DEB78983ECE5F0E089819F
:100E800080830F90CF91DF910895DF93CF93CDB7FB
:100E9000DEB7E2E5F0E08081CF91DF910895DF9346
:100EA000CF93CDB7DEB7E2E5F0E01082CF91DF91CE
:100EB0000895DF93CF93CDB7DEB728970FB6F89498
:100EC000DEBF0FBECDBF6D837E838F83988780E0AA
:100ED0000E94290710928E0110928F0110929001AA
:100EE000109291018D819E81AF81B885880F991FE5
:100EF000AA1FBB1F880F991FAA1FBB1F89839A8334
:100F0000AB83BC8320918E0130918F014091900181
:100F10005091910189819A81AB81BC812817390751
:100F20004A075B0778F328960FB6F894DEBF0FBE2A
:100F3000CDBFCF91DF910895DF93CF9300D00F9273
:100F4000CDB7DEB79B838A8381E089838A819B81C9
:100F5000009739F08A819B8190938B0180938A015D
:100F600001C0198289810F900F900F90CF91DF916E
:100F700008951F920F920FB60F9211242F933F9353
:100F80004F935F936F937F938F939F93AF93BF9391
:100F9000EF93FF93DF93CF93CDB7DEB780918A01B4
:100FA00090918B01009729F0E0918A01F0918B01DB
:100FB0000995CF91DF91FF91EF91BF91AF919F91F3
:100FC0008F917F916F915F914F913F912F910F90F2
:100FD0000FBE0F901F901895DF93CF9300D00F9204
:100FE000CDB7DEB79B838A8381E089838A819B8129
:100FF000009739F08A819B8190938D0180938C01B9
:1010000001C0198289810F900F900F90CF91DF91CD
:1010100008951F920F920FB60F9211242F933F93B2
:101020004F935F936F937F938F939F93AF93BF93F0
:10103000EF93FF93DF93CF93CDB7DEB780918E010F
:1010400090918F01A0919001B09191010196A11D05
:10105000B11D80938E0190938F01A0939001B09366
:10106000910180918C0190918D01009729F0E09180
:101070008C01F0918D010995CF91DF91FF91EF9156
:10108000BF91AF919F918F917F916F915F914F91A0
:101090003F912F910F900FBE0F901F901895DF93E7
:1010A000CF93CDB7DEB7AFE5B0E0EFE5F0E08081FC
:1010B00080688C93CF91DF910895DF93CF93CDB764
:1010C000DEB7AFE5B0E0EFE5F0E080818F778C939D
:1010D000CF91DF910895DF93CF93CDB7DEB7A5E52C
:1010E000B0E0E5E5F0E0808182608C93A5E5B0E0BA
:1010F000E5E5F0E080818E7F8C93ABE5B0E0EBE539
:10110000F0E0808180648C93CF91DF910895DF932C
:10111000CF93CDB7DEB7A5E5B0E0E5E5F0E080819F
:1011200088608C93A5E5B0E0E5E5F0E080818B7FF9
:101130008C93ABE5B0E0EBE5F0E0808180688C93C8
:10114000CF91DF910895DF93CF93CDB7DEB7A4E5BC
:10115000B0E0E4E5F0E080818F7B8C93ABE5B0E01C
:10116000EBE5F0E0808180628C93CF91DF91089570
:10117000DF93CF93CDB7DEB72B970FB6F894DEBFD2
:101180000FBECDBF8A836B8381E089838A81282F3C
:1011900030E03B872A878A859B858130910509F459
:1011A00086C02A853B852230310509F4FBC08A853B
:1011B0009B85009709F026C18B81282F30E0398765
:1011C0002887888599858230910569F12885398538
:1011D0002330310534F4888599858130910569F093
:1011E00064C0288539852330310599F18885998532
:1011F0008430910509F443C058C0A5E5B0E0E5E5A9
:10120000F0E0808182608C93A5E5B0E0E5E5F0E058
:1012100080818E7F8C93ABE5B0E0EBE5F0E08081E0
:1012200080648C93F0C0A5E5B0E0E5E5F0E0808156
:1012300082608C93A5E5B0E0E5E5F0E08081816017
:101240008C93ABE5B0E0EBE5F0E0808180648C93BB
:10125000DAC0A5E5B0E0E5E5F0E080818D7F8C9314
:10126000A5E5B0E0E5E5F0E0808181608C93ABE539
:10127000B0E0EBE5F0E0808180648C93C4C0A5E52C
:10128000B0E0E5E5F0E080818D7F8C93A5E5B0E0EE
:10129000E5E5F0E080818E7F8C93ABE5B0E0EBE597
:1012A000F0E0808180648C93AEC01982ACC08B81E9
:1012B000282F30E03F832E838E819F8182309105DD
:1012C00069F12E813F812330310534F48E819F8175
:1012D0008130910569F064C02E813F812330310552
:1012E00099F18E819F818430910509F443C058C0E3
:1012F000A5E5B0E0E5E5F0E0808188608C93A5E5A8
:10130000B0E0E5E5F0E080818B7F8C93ABE5B0E069
:10131000EBE5F0E0808180688C9375C0A5E5B0E0D6
:10132000E5E5F0E0808188608C93A5E5B0E0E5E537
:10133000F0E0808184608C93ABE5B0E0EBE5F0E019
:10134000808180688C935FC0A5E5B0E0E5E5F0E0C2
:101350008081877F8C93A5E5B0E0E5E5F0E08081B2
:1013600084608C93ABE5B0E0EBE5F0E080818068D1
:101370008C9349C0A5E5B0E0E5E5F0E08081877F8A
:101380008C93A5E5B0E0E5E5F0E080818B7F8C9360
:10139000ABE5B0E0EBE5F0E0808180688C9333C092
:1013A000198231C08B81282F30E03D832C838C81C2
:1013B0009D818130910531F02C813D8122303105B4
:1013C00081F01EC0A4E5B0E0E4E5F0E080818F7B11
:1013D0008C93ABE5B0E0EBE5F0E0808180628C932C
:1013E00012C0A4E5B0E0E4E5F0E0808180648C9375
:1013F000ABE5B0E0EBE5F0E0808180628C9303C068
:10140000198201C0198289812B960FB6F894DEBF2C
:101410000FBECDBFCF91DF910895DF93CF9300D062
:1014200000D0CDB7DEB78A8381E089838A81282FF7
:1014300030E03C832B838B819C818130910589F046
:101440002B813C8122303105A1F08B819C8100975A
:10145000C1F4ABE5B0E0EBE5F0E080818F7B8C93ED
:1014600011C0ABE5B0E0EBE5F0E080818F778C93C5
:1014700009C0ABE5B0E0EBE5F0E080818F7D8C93B7
:1014800001C0198289810F900F900F900F90CF911A
:10149000DF910895DF93CF9300D00F92CDB7DEB7E1
:1014A0009B838A8381E089838A819B81009739F0BD
:1014B0008A819B81909393018093920101C019824C
:1014C00089810F900F900F90CF91DF910895DF9356
:1014D000CF9300D00F92CDB7DEB79B838A8381E094
:1014E00089838A819B81009739F08A819B819093BF
:1014F00095018093940101C0198289810F900F900A
:101500000F90CF91DF910895DF93CF9300D00F928A
:10151000CDB7DEB79B838A8381E089838A819B81F3
:10152000009739F08A819B8190939701809396016F
:1015300001C0198289810F900F900F90CF91DF9198
:1015400008951F920F920FB60F9211242F933F937D
:101550004F935F936F937F938F939F93AF93BF93BB
:10156000EF93FF93DF93CF93CDB7DEB780919201D6
:1015700090919301009729F0E0919201F0919301ED
:101580000995CF91DF91FF91EF91BF91AF919F911D
:101590008F917F916F915F914F913F912F910F901C
:1015A0000FBE0F901F9018951F920F920FB60F92BB
:1015B00011242F933F934F935F936F937F938F9358
:1015C0009F93AF93BF93EF93FF93DF93CF93CDB7E9
:1015D000DEB78091940190919501009729F0E091F8
:1015E0009401F09195010995CF91DF91FF91EF91D1
:1015F000BF91AF919F918F917F916F915F914F912B
:101600003F912F910F900FBE0F901F9018951F9232
:101610000F920FB60F9211242F933F934F935F9326
:101620006F937F938F939F93AF93BF93EF93FF93AA
:10163000DF93CF93CDB7DEB780919601909197015C
:10164000009729F0E0919601F09197010995CF91CB
:10165000DF91FF91EF91BF91AF919F918F917F911A
:101660006F915F914F913F912F910F900FBE0F900F
:101670001F901895DF93CF93CDB7DEB728970FB69D
:10168000F894DEBF0FBECDBF8A836B834C8381E0AD
:1016900089838A81843008F0F1C08B81883008F01A
:1016A000EDC08C81813009F06FC08A81282F30E035
:1016B00038872F838F8198858130910549F12F815B
:1016C0003885223031052CF48F819885009761F0A0
:1016D000D6C02F8138852230310571F18F819885F0
:1016E00083309105E9F1CBC0AAE3B0E0EAE3F0E092
:1016F0008081482F8B81282F30E081E090E0022EFE
:1017000002C0880F991F0A94E2F7842B8C93B7C00C
:10171000A7E3B0E0E7E3F0E08081482F8B81282F3A
:1017200030E081E090E0022E02C0880F991F0A94F9
:10173000E2F7842B8C93A3C0A4E3B0E0E4E3F0E0F1
:101740008081482F8B81282F30E081E090E0022EAD
:1017500002C0880F991F0A94E2F7842B8C938FC0E4
:10176000A1E3B0E0E1E3F0E08081482F8B81282FF6
:1017700030E081E090E0022E02C0880F991F0A94A9
:10178000E2F7842B8C937BC08C81882309F074C092
:101790008A81282F30E03E832D838D819E81813088
:1017A000910559F12D813E81223031052CF48D8136
:1017B0009E81009769F063C02D813E812230310502
:1017C00089F18D819E818330910509F440C057C015
:1017D000AAE3B0E0EAE3F0E08081482F8B81282F74
:1017E00030E081E090E0022E02C0880F991F0A9439
:1017F000E2F7809584238C9342C0A7E3B0E0E7E34F
:10180000F0E08081482F8B81282F30E081E090E04C
:10181000022E02C0880F991F0A94E2F78095842354
:101820008C932DC0A4E3B0E0E4E3F0E08081482F86
:101830008B81282F30E081E090E0022E02C0880FDB
:10184000991F0A94E2F7809584238C9318C0A1E332
:10185000B0E0E1E3F0E08081482F8B81282F30E079
:1018600081E090E0022E02C0880F991F0A94E2F7EF
:10187000809584238C9303C0198201C019828981C9
:1018800028960FB6F894DEBF0FBECDBFCF91DF9183
:101890000895DF93CF93CDB7DEB728970FB6F894AE
:1018A000DEBF0FBECDBF8A836B834C8381E089830B
:1018B0008A81843008F0F1C08B81883008F0EDC057
:1018C0008C81813009F06FC08A81282F30E0388701
:1018D0002F838F8198858130910549F12F8138853B
:1018E000223031052CF48F819885009761F0D6C0A5
:1018F0002F8138852230310571F18F8198858330B1
:101900009105E9F1CBC0ABE3B0E0EBE3F0E080811F
:10191000482F8B81282F30E081E090E0022E02C01A
:10192000880F991F0A94E2F7842B8C93B7C0A8E321
:10193000B0E0E8E3F0E08081482F8B81282F30E091
:1019400081E090E0022E02C0880F991F0A94E2F70E
:10195000842B8C93A3C0A5E3B0E0E5E3F0E08081A5
:10196000482F8B81282F30E081E090E0022E02C0CA
:10197000880F991F0A94E2F7842B8C938FC0A2E3FF
:10198000B0E0E2E3F0E08081482F8B81282F30E047
:1019900081E090E0022E02C0880F991F0A94E2F7BE
:1019A000842B8C937BC08C81882309F074C08A813E
:1019B000282F30E03E832D838D819E8181309105DB
:1019C00059F12D813E81223031052CF48D819E818B
:1019D000009769F063C02D813E812230310589F185
:1019E0008D819E818330910509F440C057C0ABE3DF
:1019F000B0E0EBE3F0E08081482F8B81282F30E0CE
:101A000081E090E0022E02C0880F991F0A94E2F74D
:101A1000809584238C9342C0A8E3B0E0E8E3F0E033
:101A20008081482F8B81282F30E081E090E0022ECA
:101A300002C0880F991F0A94E2F7809584238C9343
:101A40002DC0A5E3B0E0E5E3F0E08081482F8B8175
:101A5000282F30E081E090E0022E02C0880F991F0D
:101A60000A94E2F7809584238C9318C0A2E3B0E037
:101A7000E2E3F0E08081482F8B81282F30E081E085
:101A800090E0022E02C0880F991F0A94E2F7809519
:101A900084238C9303C0198201C0198289812896FE
:101AA0000FB6F894DEBF0FBECDBFCF91DF91089582
:101AB000DF93CF93CDB7DEB727970FB6F894DEBF8D
:101AC0000FBECDBF8A836B835D834C8381E08983A6
:101AD0008A81843008F075C08B81883008F071C02D
:101AE0008A81282F30E03F832E834E815F814130F1
:101AF000510559F18E819F818230910534F42E81F8
:101B00003F812115310569F05DC04E815F81423012
:101B1000510579F18E819F818330910509F43DC093
:101B200051C0E9E3F0E08081282F30E08B81882FDD
:101B300090E0A90102C0559547958A95E2F7CA0140
:101B40008170EC81FD8180833DC0E6E3F0E080811F
:101B5000282F30E08B81882F90E0A90102C0559595
:101B600047958A95E2F7CA018170EC81FD818083F7
:101B700029C0E3E3F0E08081282F30E08B81882FBB
:101B800090E0A90102C0559547958A95E2F7CA01F0
:101B90008170EC81FD81808315C0E0E3F0E08081FD
:101BA000282F30E08B81882F90E0A90102C0559545
:101BB00047958A95E2F7CA018170EC81FD818083A7
:101BC00001C01982898127960FB6F894DEBF0FBE37
:101BD000CDBFCF91DF910895DF93CF9300D000D098
:101BE0000F92CDB7DEB78A836B8381E089838A81C8
:101BF000843008F073C08B81883008F06FC08A8110
:101C0000282F30E03D832C838C819D81813091058C
:101C100049F12C813D81223031052CF48C819D814C
:101C2000009761F05CC02C813D812230310571F15B
:101C30008C819D8183309105E9F151C0ABE3B0E027
:101C4000EBE3F0E08081482F8B81282F30E081E0AA
:101C500090E0022E02C0880F991F0A94E2F78427B1
:101C60008C933DC0A8E3B0E0E8E3F0E08081482F2A
:101C70008B81282F30E081E090E0022E02C0880F97
:101C8000991F0A94E2F784278C9329C0A5E3B0E05A
:101C9000E5E3F0E08081482F8B81282F30E081E060
:101CA00090E0022E02C0880F991F0A94E2F7842761
:101CB0008C9315C0A2E3B0E0E2E3F0E08081482F0E
:101CC0008B81282F30E081E090E0022E02C0880F47
:101CD000991F0A94E2F784278C9301C019828981A5
:101CE0000F900F900F900F900F90CF91DF9108956C
:101CF000DF93CF93CDB7DEB727970FB6F894DEBF4B
:101D00000FBECDBF8A836B8381E089838A81843053
:101D100008F06AC08B818F3F99F58A81282F30E0C7
:101D20003F832E838E819F8181309105D1F02E815A
:101D30003F81223031052CF48E819F81009761F024
:101D400054C02E813F812230310581F08E819F81E8
:101D50008330910581F049C0EAE3F0E08FEF8083A2
:101D600044C0E7E3F0E08FEF80833FC0E4E3F0E0BE
:101D70008FEF80833AC0E1E3F0E08FEF808335C0DE
:101D80008B81882379F58A81282F30E03D832C834D
:101D90008C819D8181309105C9F02C813D8122305B
:101DA00031052CF48C819D81009761F01EC02C813F
:101DB0003D812230310571F08C819D818330910508
:101DC00069F013C0EAE3F0E010820FC0E7E3F0E04F
:101DD00010820BC0E4E3F0E0108207C0E1E3F0E022
:101DE000108203C0198201C01982898127960FB61B
:101DF000F894DEBF0FBECDBFCF91DF910895DF9382
:101E0000CF9300D000D00F92CDB7DEB78A836B831B
:101E100081E089838A81843098F58A81282F30E097
:101E20003D832C838C819D8181309105D1F02C8163
:101E30003D81223031052CF48C819D81009761F029
:101E400020C02C813D812230310581F08C819D8123
:101E50008330910581F015C0EBE3F0E08B81808346
:101E600010C0E8E3F0E08B8180830BC0E5E3F0E095
:101E70008B81808306C0E2E3F0E08B81808301C028
:101E8000198289810F900F900F900F900F90CF9132
:101E9000DF910895DF93CF9300D000D0CDB7DEB7A8
:101EA0008A8381E089838A81843008F03FC08A81F7
:101EB000282F30E03C832B838B819C8181309105DE
:101EC000E9F02B813C81223031052CF48B819C81FF
:101ED000009761F02CC02B813C8122303105B1F09C
:101EE0008B819C8183309105C9F021C0ABE3B0E0C8
:101EF000EBE3F0E0808180958C9319C0A8E3B0E01B
:101F0000E8E3F0E0808180958C9311C0A5E3B0E018
:101F1000E5E3F0E0808180958C9309C0A2E3B0E016
:101F2000E2E3F0E0808180958C9301C01982898181
:101F30000F900F900F900F90CF91DF910895DF9346
:101F4000CF93CDB7DEB727970FB6F894DEBF0FBE9D
:101F5000CDBF8A836B8381E089838A81843008F0D6
:101F600088C08B818F3F09F03FC08A81282F30E0E5
:101F70003F832E838E819F8181309105E9F02E81F0
:101F80003F81223031052CF48E819F81009761F0D2
:101F900071C02E813F8122303105B1F08E819F8149
:101FA00083309105C9F066C0AAE3B0E0EAE3F0E04F
:101FB0008081806F8C935EC0A7E3B0E0E7E3F0E040
:101FC0008081806F8C9356C0A4E3B0E0E4E3F0E03E
:101FD0008081806F8C934EC0A1E3B0E0E1E3F0E03C
:101FE0008081806F8C9346C08B81882309F03FC02D
:101FF0008A81282F30E03D832C838C819D81813024
:102000009105E9F02C813D81223031052CF48C8141
:102010009D81009761F02EC02C813D8122303105D9
:10202000B1F08C819D8183309105C9F023C0AAE372
:10203000B0E0EAE3F0E080818F708C931BC0A7E3EF
:10204000B0E0E7E3F0E080818F708C9313C0A4E3ED
:10205000B0E0E4E3F0E080818F708C930BC0A1E3EB
:10206000B0E0E1E3F0E080818F708C9303C01982CF
:1020700001C01982898127960FB6F894DEBF0FBE82
:10208000CDBFCF91DF910895DF93CF93CDB7DEB76A
:1020900027970FB6F894DEBF0FBECDBF8A836B8340
:1020A00081E089838A81843008F0A8C08B818F3FCA
:1020B00009F04FC08A81282F30E03F832E838E8124
:1020C0009F818130910509F12E813F8122303105B8
:1020D0002CF48E819F81009761F091C02E813F8109
:1020E00022303105F1F08E819F818330910529F1F5
:1020F00086C0ABE3B0E0EBE3F0E08081982F9F7007
:102100008B81807F892B8C937AC0A8E3B0E0E8E3D1
:10211000F0E08081982F9F708B81807F892B8C933A
:102120006EC0A5E3B0E0E5E3F0E08081982F9F70FA
:102130008B81807F892B8C9362C0A2E3B0E0E2E3C5
:10214000F0E08081982F9F708B81807F892B8C930A
:1021500056C08B81882309F04FC08A81282F30E038
:102160003D832C838C819D818130910509F12C81E7
:102170003D81223031052CF48C819D81009761F0E6
:102180003EC02C813D8122303105F1F08C819D8152
:102190008330910529F133C0ABE3B0E0EBE3F0E02D
:1021A0008081982F9F708B81807F892B8C9327C093
:1021B000A8E3B0E0E8E3F0E08081982F9F708B8186
:1021C000807F892B8C931BC0A5E3B0E0E5E3F0E0B2
:1021D0008081982F9F708B81807F892B8C930FC07B
:1021E000A2E3B0E0E2E3F0E08081982F9F708B8162
:1021F000807F892B8C9303C0198201C01982898149
:1022000027960FB6F894DEBF0FBECDBFCF91DF91FA
:102210000895DF93CF93CDB7DEB727970FB6F89425
:10222000DEBF0FBECDBF8A836B8381E089838A8145
:10223000843008F088C08B818F3F09F03FC08A81CD
:10224000282F30E03F832E838E819F81813091053E
:10225000E9F02E813F81223031052CF48E819F815F
:10226000009761F071C02E813F8122303105B1F0BD
:102270008E819F8183309105C9F066C0AAE3B0E0EA
:10228000EAE3F0E080818F608C935EC0A7E3B0E06A
:10229000E7E3F0E080818F608C9356C0A4E3B0E068
:1022A000E4E3F0E080818F608C934EC0A1E3B0E066
:1022B000E1E3F0E080818F608C9346C08B818823BE
:1022C00009F03FC08A81282F30E03D832C838C8128
:1022D0009D8181309105E9F02C813D8122303105CD
:1022E0002CF48C819D81009761F02EC02C813D8162
:1022F00022303105B1F08C819D8183309105C9F088
:1023000023C0AAE3B0E0EAE3F0E08081807F8C9311
:102310001BC0A7E3B0E0E7E3F0E08081807F8C930F
:1023200013C0A4E3B0E0E4E3F0E08081807F8C930D
:102330000BC0A1E3B0E0E1E3F0E08081807F8C930B
:1023400003C0198201C01982898127960FB6F894BB
:10235000DEBF0FBECDBFCF91DF910895DF93CF9346
:10236000CDB7DEB727970FB6F894DEBF0FBECDBF4F
:102370008A836B8381E089838A81843008F0A8C0D6
:102380008B818F3F09F04FC08A81282F30E03F8337
:102390002E838E819F818130910509F12E813F81AD
:1023A000223031052CF48E819F81009761F091C01D
:1023B0002E813F8122303105F1F08E819F81833063
:1023C000910529F186C0ABE3B0E0EBE3F0E080815A
:1023D000982F907F8B818F70892B8C937AC0A8E384
:1023E000B0E0E8E3F0E08081982F907F8B818F70E0
:1023F000892B8C936EC0A5E3B0E0E5E3F0E080812B
:10240000982F907F8B818F70892B8C9362C0A2E371
:10241000B0E0E2E3F0E08081982F907F8B818F70B5
:10242000892B8C9356C08B81882309F04FC08A81F9
:10243000282F30E03D832C838C819D818130910554
:1024400009F12C813D81223031052CF48C819D8154
:10245000009761F03EC02C813D8122303105F1F0C2
:102460008C819D818330910529F133C0ABE3B0E0CD
:10247000EBE3F0E08081982F907F8B818F70892B28
:102480008C9327C0A8E3B0E0E8E3F0E08081982FC8
:10249000907F8B818F70892B8C931BC0A5E3B0E05C
:1024A000E5E3F0E08081982F907F8B818F70892BFE
:1024B0008C930FC0A2E3B0E0E2E3F0E08081982FBC
:1024C000907F8B818F70892B8C9303C0198201C000
:1024D0001982898127960FB6F894DEBF0FBECDBF53
:1024E000CF91DF910895AF92BF92CF92DF92EF929A
:1024F000FF920F931F93DF93CF93CDB7DEB7A497CF
:102500000FB6F894DEBF0FBECDBF6D8B7E8B8F8B69
:10251000988F298F3A8F4B8F5C8FED8EFE8E0F8FA9
:1025200018A3A9A2BAA2CBA2DCA2298D3A8D4B8D09
:102530005C8D8D899E89AF89B88D79018A01E81AF1
:10254000F90A0A0B1B0BD801C701898B9A8BAB8B3D
:10255000BC8B29A13AA14BA15CA18D8D9E8DAF8D25
:10256000B8A179018A01E81AF90A0A0B1B0BD801F4
:10257000C7018D879E87AF87B88B29A93AA94BA938
:102580005CA98D899E89AF89B88D79018A01E81A85
:10259000F90A0A0B1B0BD801C70189879A87AB87F9
:1025A000BC8769857A858B859C850E9455047B0153
:1025B0008C0169897A898B899C890E9455049B01C9
:1025C000AC01C801B7010E941903DC01CB018D8366
:1025D0009E83AF83B8876D857E858F8598890E949D
:1025E0005504DC01CB01BC01CD012D813E814F8121
:1025F00058850E941F02DC01CB01BC01CD010E9465
:10260000B3049B01AC018D8D9E8DAF8DB8A1820F5F
:10261000931FA41FB51F89839A83AB83BC838981D1
:102620009A81AB81BC81BC01CD01A4960FB6F89410
:10263000DEBF0FBECDBFCF91DF911F910F91FF90F5
:10264000EF90DF90CF90BF90AF900895DF93CF933E
:1026500000D0CDB7DEB79A838983E981FA81808182
:10266000E981FA819181692F40E00E943A0BE9816A
:10267000FA818281882351F4E981FA818081E9819C
:10268000FA819181692F41E00E94490C0F900F90CF
:10269000CF91DF910895DF93CF93CDB7DEB7EA975F
:1026A0000FB6F894DEBF0FBECDBF9AAF89AFE9ADCC
:1026B000FAAD8281882331F0E9ADFAAD82818130B3
:1026C00009F001C1E9ADFAAD8081E9ADFAAD9181C2
:1026D00029E631E0692FA9010E94580D8091690116
:1026E000882309F075C01092680180E090E0A0E2B4
:1026F000B2E48DAB9EABAFABB8AF6DA97EA98FA98D
:1027000098AD20E030E04AEF54E40E941F02DC0163
:10271000CB0189AB9AABABABBCAB69A97AA98BA94E
:102720009CA920E030E040E85FE30E942504882374
:102730002CF481E090E098AB8FA73FC069A97AA9FB
:102740008BA99CA920E03FEF4FE757E40E94C50307
:1027500018164CF56DA97EA98FA998AD20E030E040
:1027600040E251E40E941F02DC01CB01BC01CD011B
:102770000E944900DC01CB0198AB8FA70FC088EC09
:1027800090E09EA78DA78DA59EA50197F1F79EA726
:102790008DA78FA598A9019798AB8FA78FA598A90A
:1027A000009769F796C169A97AA98BA99CA90E948B
:1027B0004900DC01CB0198AB8FA78FA598A99CA7F6
:1027C0008BA78BA59CA50197F1F79CA78BA781C12F
:1027D00080916901813009F07CC181E080936801BA
:1027E00080E090E0A0E2B2E48FA398A7A9A7BAA7DF
:1027F0006FA178A589A59AA520E030E04AEF54E4BE
:102800000E941F02DC01CB018BA39CA3ADA3BEA33E
:102810006BA17CA18DA19EA120E030E040E85FE3A8
:102820000E94250488232CF481E090E09AA389A3D8
:102830003FC06BA17CA18DA19EA120E03FEF4FE79F
:1028400057E40E94C50318164CF56FA178A589A519
:102850009AA520E030E040E251E40E941F02DC0132
:10286000CB01BC01CD010E944900DC01CB019AA340
:1028700089A30FC088EC90E098A38F8F8F8D98A1CB
:102880000197F1F798A38F8F89A19AA101979AA335
:1028900089A389A19AA1009769F71BC16BA17CA1AB
:1028A0008DA19EA10E944900DC01CB019AA389A3BE
:1028B00089A19AA19E8F8D8F8D8D9E8D0197F1F7A5
:1028C0009E8F8D8F06C1E9ADFAAD8281823009F00D
:1028D00000C1E9ADFAAD8081E9ADFAAD918129E69B
:1028E00031E0692FA9010E94580D80916901813062
:1028F00009F075C01092680180E090E0A0E2B2E4B7
:10290000898F9A8FAB8FBC8F698D7A8D8B8D9C8DC3
:1029100020E030E04AEF54E40E941F02DC01CB01CA
:102920008D8B9E8BAF8BB88F6D897E898F89988DAB
:1029300020E030E040E85FE30E94250488232CF487
:1029400081E090E09C8B8B8B3FC06D897E898F8965
:10295000988D20E03FEF4FE757E40E94C50318161B
:102960004CF5698D7A8D8B8D9C8D20E030E040E2B6
:1029700051E40E941F02DC01CB01BC01CD010E9489
:102980004900DC01CB019C8B8B8B0FC088EC90E065
:102990009A8B898B89899A890197F1F79A8B898B10
:1029A0008B899C8901979C8B8B8B8B899C89009749
:1029B00069F78FC06D897E898F89988D0E94490043
:1029C000DC01CB019C8B8B8B8B899C89988B8F87AF
:1029D0008F8598890197F1F7988B8F877AC08091BE
:1029E0006901882309F075C081E08093680180E067
:1029F00090E0A0E2B2E48B879C87AD87BE876B85B1
:102A00007C858D859E8520E030E04AEF54E40E946D
:102A10001F02DC01CB018F839887A987BA876F815A
:102A2000788589859A8520E030E040E85FE30E9460
:102A3000250488232CF481E090E09E838D833FC0A1
:102A40006F81788589859A8520E03FEF4FE757E4CD
:102A50000E94C50318164CF56B857C858D859E8577
:102A600020E030E040E251E40E941F02DC01CB0193
:102A7000BC01CD010E944900DC01CB019E838D8306
:102A80000FC088EC90E09C838B838B819C810197A5
:102A9000F1F79C838B838D819E8101979E838D832B
:102AA0008D819E81009769F714C06F817885898533
:102AB0009A850E944900DC01CB019E838D838D8124
:102AC0009E819A83898389819A810197F1F79A83FC
:102AD000898380916801EA960FB6F894DEBF0FBE35
:102AE000CDBFCF91DF910895DF93CF9300D0CDB7C5
:102AF000DEB79A838983E981FA818081E981FA814D
:102B00009181692F41E00E943A0B0F900F90CF9175
:102B1000DF910895DF93CF9300D0CDB7DEB79A83CE
:102B20008983E981FA818281813059F4E981FA81CE
:102B30008081E981FA819181692F41E00E94490CED
:102B40000FC0E981FA818281882351F4E981FA81F9
:102B50008081E981FA819181692F40E00E94490CCE
:102B60000F900F90CF91DF910895DF93CF9300D016
:102B7000CDB7DEB79A838983E981FA81828181307A
:102B800059F4E981FA818081E981FA819181692F83
:102B900040E00E94490C0FC0E981FA8182818823BC
:102BA00051F4E981FA818081E981FA819181692F6B
:102BB00041E00E94490C0F900F90CF91DF91089552
:102BC000DF93CF9300D0CDB7DEB79A838983E981B5
:102BD000FA818081E981FA819181692F0E94EC0D4F
:102BE0000F900F90CF91DF910895DF93CF9300D096
:102BF000CDB7DEB79A838983E981FA8180816FEF4F
:102C00000E94780E0F900F90CF91DF910895DF937F
:102C1000CF9300D0CDB7DEB79A838983E981FA815B
:102C20008181813039F4E981FA8180816FEF0E94DE
:102C3000FF0E0BC0E981FA818181882331F4E9819B
:102C4000FA81808160E00E94FF0E0F900F90CF917B
:102C5000DF910895DF93CF9300D0CDB7DEB79A838D
:102C60008983E981FA818181813039F4E981FA81AE
:102C7000808160E00E94FF0E0BC0E981FA818181B2
:102C8000882331F4E981FA8180816FEF0E94FF0E81
:102C90000F900F90CF91DF910895DF93CF9300D0E5
:102CA000CDB7DEB79A838983E981FA8180810E945A
:102CB0004A0F0F900F90CF91DF910895DF93CF933C
:102CC00000D00F92CDB7DEB79A8389836B83E981F9
:102CD000FA818181813039F4E981FA8180816B81C7
:102CE0000E94FF0E0BC0E981FA818181882331F4B3
:102CF000E981FA8180816B810E94FF0E0F900F9015
:102D00000F90CF91DF910895DF93CF93CDB7DEB7CA
:102D100081E791E00E9474158EE691E00E9474159F
:102D20008BE691E00E94741587E791E00E9474158C
:102D300084E791E00E94741580E891E00E94741588
:102D40008DE791E00E9474158AE791E00E94741566
:102D500086E891E00E94741583E891E00E94741562
:102D600083E062E041E00E94490C0E946B0887E822
:102D700097E10E944A0A0E94FC060E944F08CF91E8
:102D8000DF910895DF93CF9300D000D000D0CDB76E
:102D9000DEB780919801882309F09FC080916A0175
:102DA000813009F04AC01E820E9497170E94EB17DB
:102DB0000E940D180E9420181D8210C064E670E069
:102DC00080E090E00E94590780919801813019F4C9
:102DD00081E08E8306C08D818F5F8D838D818639E2
:102DE00068F382E080936A018E81813091F20E94C3
:102DF000AA170E94C9170E94DC170E94FA170E94A6
:102E00002F181C8210C064E670E080E090E00E9401
:102E1000590780919801813019F481E08E8306C0B2
:102E20008C818F5F8C838C81863968F38E818130B1
:102E300009F4AFCF0E94AA17ACCF80916A0182300B
:102E400009F0A7CF1B820E94FA170E942F180E9438
:102E5000C9170E94DC171A8210C064E670E080E097
:102E600090E00E94590780919801813019F481E027
:102E70008B8306C08A818F5F8A838A81863968F353
:102E800081E080936A018B81813009F482CF0E94B6
:102E9000AA170E940D180E9420180E9497170E94DE
:102EA000EB17198210C064E670E080E090E00E94A9
:102EB000590780919801813019F481E08B8306C015
:102EC00089818F5F89838981863968F38B8181301D
:102ED00009F45FCF0E94AA175CCF809198018130DE
:102EE00009F057CF0E94AA170E94C9170E940D1817
:102EF0000E94DC170E94201868E97AE380E090E0E5
:102F00000E9459070E94AA171092980142CFDF939E
:102F1000CF93CDB7DEB70E944F07809198018823E9
:102F200019F481E080939801CF91DF910895DF93A8
:102F3000CF93CDB7DEB78BE691E00E948A158EE67F
:102F400091E00E94B51581E791E00E94B515CF91FF
:102F5000DF910895DF93CF930F92CDB7DEB719823B
:102F600011C08EE691E00E94E0158DE791E00E948D
:102F7000E01568EC70E080E090E00E9459078981DC
:102F80008F5F898389818A3060F30F90CF91DF91C1
:102F90000895DF93CF93CDB7DEB781E791E00E942C
:102FA0008A158EE691E00E94B5158BE691E00E94AD
:102FB000B515CF91DF910895DF93CF93CDB7DEB7ED
:102FC00084E791E00E948A1587E791E00E94B51599
:102FD000CF91DF910895DF93CF93CDB7DEB787E729
:102FE00091E00E948A1584E791E00E94B515CF9187
:102FF000DF910895DF93CF93CDB7DEB78AE791E0F5
:103000000E948A158DE791E00E94B51580E891E055
:103010000E94B515CF91DF910895DF93CF93CDB77F
:10302000DEB780E891E00E948A158DE791E00E946A
:10303000B5158AE791E00E94B515CF91DF9108950B
:10304000DF93CF93CDB7DEB783E891E00E948A1576
:1030500086E891E00E94B515CF91DF910895DF9346
:10306000CF93CDB7DEB786E891E00E948A1583E85A
:1030700091E00E94B515CF91DF910895DF93CF9332
:10308000CDB7DEB70E9484160E94C216CF91DF91A1
:1030900008952F923F924F925F926F927F928F92FC
:1030A0009F92AF92BF92CF92DF92EF92FF920F93D7
:1030B0001F93CF93DF93CDB7DEB7CA1BDB0B0FB6E1
:1030C000F894DEBF0FBECDBF09942A88398848889E
:1030D0005F846E847D848C849B84AA84B984C88434
:1030E000DF80EE80FD800C811B81AA81B981CE0F2B
:1030F000D11D0FB6F894DEBF0FBECDBFED01089510
:04310000F894FFCF71
:1031040000000000000000000001020203030303AA
:103114000404040404040404050505050505050563
:103124000505050505050505060606060606060643
:10313400060606060606060606060606060606062B
:103144000606060606060606070707070707070713
:1031540007070707070707070707070707070707FB
:1031640007070707070707070707070707070707EB
:1031740007070707070707070707070707070707DB
:1031840007070707070707070808080808080808C3
:1031940008080808080808080808080808080808AB
:1031A400080808080808080808080808080808089B
:1031B400080808080808080808080808080808088B
:1031C400080808080808080808080808080808087B
:1031D400080808080808080808080808080808086B
:1031E400080808080808080808080808080808085B
:1031F400080808080808080808080808080808084B
:103204000808080808080808010101000001000175
:103214000100020100030100040100050100060190
:0A3224000007010100010101010093
:00000001FF
